{
    "contractName": "UsersContract",
    "abi": [
        {
            "inputs": [
                {
                    "internalType": "address",
                    "name": "addr",
                    "type": "address"
                }
            ],
            "name": "getUser",
            "outputs": [
                {
                    "internalType": "string",
                    "name": "",
                    "type": "string"
                },
                {
                    "internalType": "string",
                    "name": "",
                    "type": "string"
                }
            ],
            "stateMutability": "view",
            "type": "function"
        },
        {
            "inputs": [
                {
                    "internalType": "string",
                    "name": "name",
                    "type": "string"
                },
                {
                    "internalType": "string",
                    "name": "surname",
                    "type": "string"
                }
            ],
            "name": "join",
            "outputs": [],
            "stateMutability": "nonpayable",
            "type": "function"
        },
        {
            "inputs": [],
            "name": "totalUsers",
            "outputs": [
                {
                    "internalType": "uint256",
                    "name": "",
                    "type": "uint256"
                }
            ],
            "stateMutability": "view",
            "type": "function"
        }
    ],
    "bytecode": "608060405234801561001057600080fd5b5061058a806100206000396000f3fe608060405234801561001057600080fd5b50600436106100415760003560e01c806329803b21146100465780636f77926b1461005b578063bff1f9e114610085575b600080fd5b610059610054366004610420565b61009a565b005b61006e6100693660046103f2565b610145565b60405161007c9291906104cc565b60405180910390f35b61008d6102b4565b60405161007c91906104fa565b6100a3336102ba565b156100ad57600080fd5b33600090815260208181526040909120835190916100cf9183918601906102d8565b5081516100e590600183019060208501906102d8565b50503360008181526001602081905260408220805460ff1916821790556002805491820181559091527f405787fa12a823e0f2b7631cc41b3ba8828b3321ca811111fa75cd3aa3bb5ace0180546001600160a01b03191690911790555050565b606080610151836102ba565b61015a57600080fd5b6001600160a01b038316600090815260208190526040808220815180830190925280548290829061018a90610503565b80601f01602080910402602001604051908101604052809291908181526020018280546101b690610503565b80156102035780601f106101d857610100808354040283529160200191610203565b820191906000526020600020905b8154815290600101906020018083116101e657829003601f168201915b5050505050815260200160018201805461021c90610503565b80601f016020809104026020016040519081016040528092919081815260200182805461024890610503565b80156102955780601f1061026a57610100808354040283529160200191610295565b820191906000526020600020905b81548152906001019060200180831161027857829003601f168201915b5050505050815250509050806000015181602001519250925050915091565b60025490565b6001600160a01b031660009081526001602052604090205460ff1690565b8280546102e490610503565b90600052602060002090601f016020900481019282610306576000855561034c565b82601f1061031f57805160ff191683800117855561034c565b8280016001018555821561034c579182015b8281111561034c578251825591602001919060010190610331565b5061035892915061035c565b5090565b5b80821115610358576000815560010161035d565b600082601f830112610381578081fd5b813567ffffffffffffffff8082111561039c5761039c61053e565b604051601f8301601f1916810160200182811182821017156103c0576103c061053e565b6040528281528483016020018610156103d7578384fd5b82602086016020830137918201602001929092529392505050565b600060208284031215610403578081fd5b81356001600160a01b0381168114610419578182fd5b9392505050565b60008060408385031215610432578081fd5b823567ffffffffffffffff80821115610449578283fd5b61045586838701610371565b9350602085013591508082111561046a578283fd5b5061047785828601610371565b9150509250929050565b60008151808452815b818110156104a65760208185018101518683018201520161048a565b818111156104b75782602083870101525b50601f01601f19169290920160200192915050565b6000604082526104df6040830185610481565b82810360208401526104f18185610481565b95945050505050565b90815260200190565b60028104600182168061051757607f821691505b6020821081141561053857634e487b7160e01b600052602260045260246000fd5b50919050565b634e487b7160e01b600052604160045260246000fdfea264697066735822122073456ff276903d069fe956bc7f82833486ef4581f2150e8684af1640f80c5e2e64736f6c63430008000033",
    "sourcePath": "c:/Users/AndyV/Documents/open-source/ethereum-training/compile-and-deploy/contracts/UserContract.sol",
    "compiler": {
        "name": "solc",
        "version": "0.8.0+commit.c7dfd78e"
    },
    "functionHashes": {
        "getUser(address)": "6f77926b",
        "join(string,string)": "29803b21",
        "totalUsers()": "bff1f9e1"
    },
    "gasEstimates": {
        "creation": {
            "codeDepositCost": "283600",
            "executionCost": "324",
            "totalCost": "283924"
        },
        "external": {
            "getUser(address)": "infinite",
            "join(string,string)": "infinite",
            "totalUsers()": "1050"
        },
        "internal": {
            "usersJoined(address)": "911"
        }
    }
}